{
    "contractName": "Kingex",
    "abi": [
        {
            "inputs": [
                {
                    "internalType": "string",
                    "name": "_tokenName",
                    "type": "string"
                },
                {
                    "internalType": "string",
                    "name": "_tokenSymbol",
                    "type": "string"
                },
                {
                    "internalType": "uint256",
                    "name": "_tokenTotalSupply",
                    "type": "uint256"
                },
                {
                    "internalType": "uint8",
                    "name": "_tokenDecimals",
                    "type": "uint8"
                }
            ],
            "stateMutability": "nonpayable",
            "type": "constructor"
        },
        {
            "anonymous": false,
            "inputs": [
                {
                    "indexed": true,
                    "internalType": "address",
                    "name": "owner",
                    "type": "address"
                },
                {
                    "indexed": true,
                    "internalType": "address",
                    "name": "spender",
                    "type": "address"
                },
                {
                    "indexed": false,
                    "internalType": "uint256",
                    "name": "value",
                    "type": "uint256"
                }
            ],
            "name": "Approval",
            "type": "event"
        },
        {
            "anonymous": false,
            "inputs": [
                {
                    "indexed": true,
                    "internalType": "address",
                    "name": "previousOwner",
                    "type": "address"
                },
                {
                    "indexed": true,
                    "internalType": "address",
                    "name": "newOwner",
                    "type": "address"
                }
            ],
            "name": "OwnershipTransferred",
            "type": "event"
        },
        {
            "anonymous": false,
            "inputs": [
                {
                    "indexed": false,
                    "internalType": "address",
                    "name": "staker",
                    "type": "address"
                },
                {
                    "indexed": false,
                    "internalType": "uint256",
                    "name": "amount",
                    "type": "uint256"
                },
                {
                    "indexed": false,
                    "internalType": "uint256",
                    "name": "id",
                    "type": "uint256"
                },
                {
                    "indexed": false,
                    "internalType": "uint256",
                    "name": "time",
                    "type": "uint256"
                }
            ],
            "name": "Staked",
            "type": "event"
        },
        {
            "anonymous": false,
            "inputs": [
                {
                    "indexed": true,
                    "internalType": "address",
                    "name": "from",
                    "type": "address"
                },
                {
                    "indexed": true,
                    "internalType": "address",
                    "name": "to",
                    "type": "address"
                },
                {
                    "indexed": false,
                    "internalType": "uint256",
                    "name": "value",
                    "type": "uint256"
                }
            ],
            "name": "Transfer",
            "type": "event"
        },
        {
            "anonymous": false,
            "inputs": [
                {
                    "indexed": false,
                    "internalType": "uint256",
                    "name": "amount",
                    "type": "uint256"
                },
                {
                    "indexed": false,
                    "internalType": "uint256",
                    "name": "stakeIndex",
                    "type": "uint256"
                }
            ],
            "name": "Withdraw",
            "type": "event"
        },
        {
            "anonymous": false,
            "inputs": [
                {
                    "indexed": true,
                    "internalType": "address",
                    "name": "staker",
                    "type": "address"
                },
                {
                    "indexed": true,
                    "internalType": "uint256",
                    "name": "id",
                    "type": "uint256"
                }
            ],
            "name": "tellId",
            "type": "event"
        },
        {
            "inputs": [
                {
                    "internalType": "address",
                    "name": "owner",
                    "type": "address"
                },
                {
                    "internalType": "address",
                    "name": "spender",
                    "type": "address"
                }
            ],
            "name": "allowance",
            "outputs": [
                {
                    "internalType": "uint256",
                    "name": "",
                    "type": "uint256"
                }
            ],
            "stateMutability": "view",
            "type": "function"
        },
        {
            "inputs": [
                {
                    "internalType": "address",
                    "name": "spender",
                    "type": "address"
                },
                {
                    "internalType": "uint256",
                    "name": "amount",
                    "type": "uint256"
                }
            ],
            "name": "approve",
            "outputs": [
                {
                    "internalType": "bool",
                    "name": "",
                    "type": "bool"
                }
            ],
            "stateMutability": "nonpayable",
            "type": "function"
        },
        {
            "inputs": [
                {
                    "internalType": "address",
                    "name": "account",
                    "type": "address"
                }
            ],
            "name": "balanceOf",
            "outputs": [
                {
                    "internalType": "uint256",
                    "name": "",
                    "type": "uint256"
                }
            ],
            "stateMutability": "view",
            "type": "function"
        },
        {
            "inputs": [
                {
                    "internalType": "address",
                    "name": "account",
                    "type": "address"
                },
                {
                    "internalType": "uint256",
                    "name": "amount",
                    "type": "uint256"
                }
            ],
            "name": "burn",
            "outputs": [
                {
                    "internalType": "bool",
                    "name": "",
                    "type": "bool"
                }
            ],
            "stateMutability": "nonpayable",
            "type": "function"
        },
        {
            "inputs": [],
            "name": "decimals",
            "outputs": [
                {
                    "internalType": "uint256",
                    "name": "",
                    "type": "uint256"
                }
            ],
            "stateMutability": "view",
            "type": "function"
        },
        {
            "inputs": [
                {
                    "internalType": "address",
                    "name": "spender",
                    "type": "address"
                },
                {
                    "internalType": "uint256",
                    "name": "amount",
                    "type": "uint256"
                }
            ],
            "name": "decreaseAllowance",
            "outputs": [
                {
                    "internalType": "bool",
                    "name": "",
                    "type": "bool"
                }
            ],
            "stateMutability": "nonpayable",
            "type": "function"
        },
        {
            "inputs": [
                {
                    "internalType": "uint256",
                    "name": "amountOut",
                    "type": "uint256"
                }
            ],
            "name": "getEstimateDAI",
            "outputs": [
                {
                    "internalType": "uint256",
                    "name": "amountIn",
                    "type": "uint256"
                }
            ],
            "stateMutability": "nonpayable",
            "type": "function"
        },
        {
            "inputs": [
                {
                    "internalType": "uint256",
                    "name": "amountIn",
                    "type": "uint256"
                }
            ],
            "name": "getEstimateETH",
            "outputs": [
                {
                    "internalType": "uint256",
                    "name": "amountOut",
                    "type": "uint256"
                }
            ],
            "stateMutability": "nonpayable",
            "type": "function"
        },
        {
            "inputs": [],
            "name": "getOwner",
            "outputs": [
                {
                    "internalType": "address",
                    "name": "",
                    "type": "address"
                }
            ],
            "stateMutability": "view",
            "type": "function"
        },
        {
            "inputs": [
                {
                    "internalType": "address",
                    "name": "spender",
                    "type": "address"
                },
                {
                    "internalType": "uint256",
                    "name": "amount",
                    "type": "uint256"
                }
            ],
            "name": "increaseAllowance",
            "outputs": [
                {
                    "internalType": "bool",
                    "name": "",
                    "type": "bool"
                }
            ],
            "stateMutability": "nonpayable",
            "type": "function"
        },
        {
            "inputs": [
                {
                    "internalType": "address",
                    "name": "account",
                    "type": "address"
                },
                {
                    "internalType": "uint256",
                    "name": "amount",
                    "type": "uint256"
                }
            ],
            "name": "mint",
            "outputs": [
                {
                    "internalType": "bool",
                    "name": "",
                    "type": "bool"
                }
            ],
            "stateMutability": "nonpayable",
            "type": "function"
        },
        {
            "inputs": [],
            "name": "name",
            "outputs": [
                {
                    "internalType": "string",
                    "name": "",
                    "type": "string"
                }
            ],
            "stateMutability": "view",
            "type": "function"
        },
        {
            "inputs": [],
            "name": "owner",
            "outputs": [
                {
                    "internalType": "address",
                    "name": "",
                    "type": "address"
                }
            ],
            "stateMutability": "view",
            "type": "function"
        },
        {
            "inputs": [],
            "name": "poolFee",
            "outputs": [
                {
                    "internalType": "uint24",
                    "name": "",
                    "type": "uint24"
                }
            ],
            "stateMutability": "view",
            "type": "function"
        },
        {
            "inputs": [],
            "name": "quoter",
            "outputs": [
                {
                    "internalType": "contract IQuoter",
                    "name": "",
                    "type": "address"
                }
            ],
            "stateMutability": "view",
            "type": "function"
        },
        {
            "inputs": [],
            "name": "renounceOwnership",
            "outputs": [],
            "stateMutability": "nonpayable",
            "type": "function"
        },
        {
            "inputs": [],
            "name": "returnStakes",
            "outputs": [
                {
                    "components": [
                        {
                            "internalType": "uint256",
                            "name": "amount",
                            "type": "uint256"
                        },
                        {
                            "internalType": "uint256",
                            "name": "fromTime",
                            "type": "uint256"
                        },
                        {
                            "internalType": "uint256",
                            "name": "claimableRewards",
                            "type": "uint256"
                        }
                    ],
                    "internalType": "struct Stakeable.stakes[]",
                    "name": "",
                    "type": "tuple[]"
                }
            ],
            "stateMutability": "view",
            "type": "function"
        },
        {
            "inputs": [],
            "name": "returnTimeStamp",
            "outputs": [
                {
                    "internalType": "uint256",
                    "name": "",
                    "type": "uint256"
                }
            ],
            "stateMutability": "view",
            "type": "function"
        },
        {
            "inputs": [
                {
                    "components": [
                        {
                            "internalType": "uint256",
                            "name": "amount",
                            "type": "uint256"
                        },
                        {
                            "internalType": "uint256",
                            "name": "fromTime",
                            "type": "uint256"
                        },
                        {
                            "internalType": "uint256",
                            "name": "claimableRewards",
                            "type": "uint256"
                        }
                    ],
                    "internalType": "struct Stakeable.stakes",
                    "name": "x",
                    "type": "tuple"
                }
            ],
            "name": "rewardStake",
            "outputs": [
                {
                    "internalType": "uint256",
                    "name": "",
                    "type": "uint256"
                }
            ],
            "stateMutability": "view",
            "type": "function"
        },
        {
            "inputs": [
                {
                    "internalType": "uint256",
                    "name": "_amount",
                    "type": "uint256"
                }
            ],
            "name": "stake",
            "outputs": [],
            "stateMutability": "nonpayable",
            "type": "function"
        },
        {
            "inputs": [
                {
                    "internalType": "uint256",
                    "name": "amountIn",
                    "type": "uint256"
                },
                {
                    "internalType": "uint256",
                    "name": "amountInMaximum",
                    "type": "uint256"
                }
            ],
            "name": "swapDAI",
            "outputs": [
                {
                    "internalType": "uint256",
                    "name": "",
                    "type": "uint256"
                }
            ],
            "stateMutability": "nonpayable",
            "type": "function"
        },
        {
            "inputs": [
                {
                    "internalType": "uint256",
                    "name": "amountIn",
                    "type": "uint256"
                }
            ],
            "name": "swapWETH",
            "outputs": [
                {
                    "internalType": "uint256",
                    "name": "",
                    "type": "uint256"
                }
            ],
            "stateMutability": "nonpayable",
            "type": "function"
        },
        {
            "inputs": [],
            "name": "symbol",
            "outputs": [
                {
                    "internalType": "string",
                    "name": "",
                    "type": "string"
                }
            ],
            "stateMutability": "view",
            "type": "function"
        },
        {
            "inputs": [],
            "name": "totalSupply",
            "outputs": [
                {
                    "internalType": "uint256",
                    "name": "",
                    "type": "uint256"
                }
            ],
            "stateMutability": "view",
            "type": "function"
        },
        {
            "inputs": [
                {
                    "internalType": "address",
                    "name": "recipient",
                    "type": "address"
                },
                {
                    "internalType": "uint256",
                    "name": "amount",
                    "type": "uint256"
                }
            ],
            "name": "transfer",
            "outputs": [
                {
                    "internalType": "bool",
                    "name": "",
                    "type": "bool"
                }
            ],
            "stateMutability": "nonpayable",
            "type": "function"
        },
        {
            "inputs": [
                {
                    "internalType": "address",
                    "name": "spender",
                    "type": "address"
                },
                {
                    "internalType": "address",
                    "name": "recipient",
                    "type": "address"
                },
                {
                    "internalType": "uint256",
                    "name": "amount",
                    "type": "uint256"
                }
            ],
            "name": "transferFrom",
            "outputs": [
                {
                    "internalType": "bool",
                    "name": "",
                    "type": "bool"
                }
            ],
            "stateMutability": "nonpayable",
            "type": "function"
        },
        {
            "inputs": [],
            "name": "uniswapRouter",
            "outputs": [
                {
                    "internalType": "contract IUniswapRouter",
                    "name": "",
                    "type": "address"
                }
            ],
            "stateMutability": "view",
            "type": "function"
        },
        {
            "inputs": [
                {
                    "internalType": "uint256",
                    "name": "stakeIndex",
                    "type": "uint256"
                }
            ],
            "name": "withdrawStake",
            "outputs": [],
            "stateMutability": "nonpayable",
            "type": "function"
        }
    ],
    "bytecode": "60806040526107d06003553480156200001757600080fd5b5060405162002358380380620023588339810160408190526200003a9162000227565b600080546001600160a01b031916331781556001805481018155905283516200006b906007906020870190620000b4565b50825162000081906006906020860190620000b4565b506005805460ff191660ff9290921691909117905560048190553360009081526008602052604090205550620002f19050565b828054620000c290620002b4565b90600052602060002090601f016020900481019282620000e6576000855562000131565b82601f106200010157805160ff191683800117855562000131565b8280016001018555821562000131579182015b828111156200013157825182559160200191906001019062000114565b506200013f92915062000143565b5090565b5b808211156200013f576000815560010162000144565b634e487b7160e01b600052604160045260246000fd5b600082601f8301126200018257600080fd5b81516001600160401b03808211156200019f576200019f6200015a565b604051601f8301601f19908116603f01168101908282118183101715620001ca57620001ca6200015a565b81604052838152602092508683858801011115620001e757600080fd5b600091505b838210156200020b5785820183015181830184015290820190620001ec565b838211156200021d5760008385830101525b9695505050505050565b600080600080608085870312156200023e57600080fd5b84516001600160401b03808211156200025657600080fd5b620002648883890162000170565b955060208701519150808211156200027b57600080fd5b506200028a8782880162000170565b93505060408501519150606085015160ff81168114620002a957600080fd5b939692955090935050565b600181811c90821680620002c957607f821691505b60208210811415620002eb57634e487b7160e01b600052602260045260246000fd5b50919050565b61205780620003016000396000f3fe608060405234801561001057600080fd5b50600436106101c45760003560e01c8063893d20e8116100f9578063ae11019811610097578063c6bbd5a711610071578063c6bbd5a7146103c0578063dd62ed3e146103db578063e1915db114610414578063e29af4ef1461042757600080fd5b8063ae11019814610387578063c2cdcf221461039a578063c602a0ae146103ad57600080fd5b80639dc29fac116100d35780639dc29fac1461033b578063a457c2d71461034e578063a694fc3a14610361578063a9059cbb1461037457600080fd5b8063893d20e8146103225780638da5cb5b1461032257806395d89b411461033357600080fd5b8063313ce567116101665780634eca89cc116101405780634eca89cc146102a957806370a08231146102be578063715018a6146102e7578063735de9f7146102ef57600080fd5b8063313ce56714610278578063395093511461028357806340c10f191461029657600080fd5b80630d71a7ea116101a25780630d71a7ea1461022757806318160ddd1461024857806323b872dd1461025057806325d5971f1461026357600080fd5b806306fdde03146101c9578063089fe6aa146101e7578063095ea7b314610204575b600080fd5b6101d161042d565b6040516101de9190611c3e565b60405180910390f35b6101f0610bb881565b60405162ffffff90911681526020016101de565b610217610212366004611c8d565b6104c8565b60405190151581526020016101de565b61023a610235366004611cb7565b6104df565b6040519081526020016101de565b60045461023a565b61021761025e366004611d21565b6104ea565b610276610271366004611d5d565b6105e5565b005b60055460ff1661023a565b610217610291366004611c8d565b610639565b6102176102a4366004611c8d565b610670565b6102b16106a5565b6040516101de9190611d76565b61023a6102cc366004611dcf565b6001600160a01b031660009081526008602052604090205490565b610276610755565b61030a73e592427a0aece92de3edee1f18e0157c0586156481565b6040516001600160a01b0390911681526020016101de565b6000546001600160a01b031661030a565b6101d16107c9565b610217610349366004611c8d565b6107d8565b61021761035c366004611c8d565b6107e4565b61027661036f366004611d5d565b61081b565b610217610382366004611c8d565b6108b5565b61023a610395366004611d5d565b6108c2565b61023a6103a8366004611d5d565b610991565b61023a6103bb366004611d5d565b61099c565b61030a73b27308f9f90d607463bb33ea1bebb41c27ce5ab681565b61023a6103e9366004611dea565b6001600160a01b03918216600090815260096020908152604080832093909416825291909152205490565b61023a610422366004611e1d565b610a22565b4261023a565b606061043833610a35565b6007805461044590611e3f565b80601f016020809104026020016040519081016040528092919081815260200182805461047190611e3f565b80156104be5780601f10610493576101008083540402835291602001916104be565b820191906000526020600020905b8154815290600101906020018083116104a157829003601f168201915b5050505050905090565b60006104d5338484610a7d565b5060015b92915050565b60006104d982610ba5565b6001600160a01b03831660009081526009602090815260408083203384529091528120548211156105965760405162461bcd60e51b815260206004820152604560248201527f4b696e6765783a20496e73756666696369656e742066756e647320666f72207360448201527f70656e6465722e20416d6f756e742067726561746572207468616e20617661696064820152646c61626c6560d81b608482015260a4015b60405180910390fd5b3360008181526009602090815260408083206001600160a01b03891684529091529020546105d09186916105cb908690611e90565b610a7d565b6105db848484610be1565b5060019392505050565b60006105f082610de5565b90506105fc33826110e7565b60408051828152602081018490527f56ca301a9219608c91e7bcee90e083c19671d2cdcc96752c7af291cee5f9c8c8910160405180910390a15050565b3360008181526009602090815260408083206001600160a01b038716845290915281205490916104d59185906105cb908690611ea7565b600080546001600160a01b0316331461069b5760405162461bcd60e51b815260040161058d90611ebf565b6104d583836110e7565b33600090815260026020526040902054600180546060929081106106cb576106cb611f09565b9060005260206000209060020201600101805480602002602001604051908101604052809291908181526020016000905b8282101561074c57838290600052602060002090600302016040518060600160405290816000820154815260200160018201548152602001600282015481525050815260200190600101906106fc565b50505050905090565b6000546001600160a01b0316331461077f5760405162461bcd60e51b815260040161058d90611ebf565b600080546040516001600160a01b03909116907f8be0079c531659141344cd1fd0a4f28419497f9722a3daafe3b4186f6b6457e0908390a3600080546001600160a01b0319169055565b60606006805461044590611e3f565b60006104d583836111d9565b3360008181526009602090815260408083206001600160a01b038716845290915281205490916104d59185906105cb908690611e90565b33600090815260086020526040902054811061089f5760405162461bcd60e51b815260206004820152603c60248201527f596f752063616e206f6e6c79207374616b652074686520616d6f756e74206c6560448201527f7373207468616e20796f75722063757272656e742062616c616e636500000000606482015260840161058d565b6108a881611344565b6108b233826111d9565b50565b60006104d5338484610be1565b60405163f7729d4360e01b815273c778417e063141139fce010982780140aa0cd5ab6004820181905273ad6d458402f60fd3bd25163575031acdce07538d60248301819052610bb8604484018190526064840185905260006084850181905293849073b27308f9f90d607463bb33ea1bebb41c27ce5ab69063f7729d439060a4015b6020604051808303816000875af1158015610963573d6000803e3d6000fd5b505050506040513d601f19601f820116820180604052508101906109879190611f1f565b9695505050505050565b60006104d982611489565b6040516330d07f2160e01b815273ad6d458402f60fd3bd25163575031acdce07538d6004820181905273c778417e063141139fce010982780140aa0cd5ab60248301819052610bb8604484018190526064840185905260006084850181905293849073b27308f9f90d607463bb33ea1bebb41c27ce5ab6906330d07f219060a401610944565b6000610a2e83836116b3565b9392505050565b6040516001600160a01b03821660248201526108b29060440160408051601f198184030181529190526020810180516001600160e01b031663161765e160e11b179052611852565b6001600160a01b038316610adf5760405162461bcd60e51b815260206004820152602360248201527f4b696e676578203a6f776e657220697320616e20696e76616c6964206164647260448201526265737360e81b606482015260840161058d565b6001600160a01b038216610b435760405162461bcd60e51b815260206004820152602560248201527f4b696e676578203a7370656e64657220697320616e20696e76616c6964206164604482015264647265737360d81b606482015260840161058d565b6001600160a01b0383811660008181526009602090815260408083209487168084529482529182902085905590518481527f8c5be1e5ebec7d5bd14f71427d1e84f3dd0314c0f7b2291e5b200ac8c7c3b92591015b60405180910390a3505050565b600080826020015142610bb89190611e90565b835160035491925090610bcd610e1084611f38565b610bd79190611f38565b610a2e9190611f5a565b6001600160a01b038316610c4b5760405162461bcd60e51b815260206004820152602b60248201527f4b696e6765783a20696e76616c69642073656e6465722061646472657373206660448201526a37b9103a3930b739b332b960a91b606482015260840161058d565b6001600160a01b038216610cb85760405162461bcd60e51b815260206004820152602e60248201527f4b696e6765783a20696e76616c696420726563697069656e742061646472657360448201526d39903337b9103a3930b739b332b960911b606482015260840161058d565b6001600160a01b038316600090815260086020526040902054811115610d3d5760405162461bcd60e51b815260206004820152603460248201527f596f7520646f206e6f74206861766520656e6f7567682062616c616e6365206660448201527337b9103a3434b9903a3930b739b0b1ba34b7b71760611b606482015260840161058d565b6001600160a01b038316600090815260086020526040902054610d61908290611e90565b6001600160a01b038085166000908152600860205260408082209390935590841681522054610d91908290611ea7565b6001600160a01b0380841660008181526008602052604090819020939093559151908516907fddf252ad1be2c89b69c2b068fc378daa952ba7f163c4a11628f55a4df523b3ef90610b989085815260200190565b336000908152600260205260408120546001805483919083908110610e0c57610e0c611f09565b90600052602060002090600202016001018481548110610e2e57610e2e611f09565b9060005260206000209060030201604051806060016040529081600082015481526020016001820154815260200160028201548152505090508160001415610eb85760405162461bcd60e51b815260206004820152601f60248201527f596f7520617265206e6f7420612072656769737465726564207374616b657200604482015260640161058d565b336001600160a01b031660018381548110610ed557610ed5611f09565b60009182526020909120600290910201546001600160a01b031614610f4f5760405162461bcd60e51b815260206004820152602a60248201527f596f7520617265206e6f7420616c6c6f7765642061636365737320746f2074686044820152691a5cc81858d8dbdd5b9d60b21b606482015260840161058d565b6000610f5a82610ba5565b90508060018481548110610f7057610f70611f09565b90600052602060002090600202016001018681548110610f9257610f92611f09565b906000526020600020906003020160020181905550600060018481548110610fbc57610fbc611f09565b90600052602060002090600202016001018681548110610fde57610fde611f09565b9060005260206000209060030201600001546001858154811061100357611003611f09565b9060005260206000209060020201600101878154811061102557611025611f09565b9060005260206000209060030201600201546110419190611ea7565b905060006001858154811061105857611058611f09565b9060005260206000209060020201600101878154811061107a5761107a611f09565b6000918252602090912060039091020155600180548590811061109f5761109f611f09565b906000526020600020906002020160010186815481106110c1576110c1611f09565b600091825260208220600390910201818155600181018290556002015595945050505050565b6001600160a01b0382166111475760405162461bcd60e51b815260206004820152602160248201527f496e76616c696420616464726573732070726f766964656420666f72206d696e6044820152601d60fa1b606482015260840161058d565b806004546111559190611ea7565b6004556001600160a01b03821660009081526008602052604090205461117c908290611ea7565b6001600160a01b0383166000818152600860205260408082209390935591519091907fddf252ad1be2c89b69c2b068fc378daa952ba7f163c4a11628f55a4df523b3ef906111cd9085815260200190565b60405180910390a35050565b6001600160a01b0382166112445760405162461bcd60e51b815260206004820152602c60248201527f4b696e6765783a20696e76616c696420616464726573732070726f766964656460448201526b081a5b88185c99dd5b595b9d60a21b606482015260840161058d565b6001600160a01b0382166000908152600860205260409020548111156112b85760405162461bcd60e51b8152602060048201526024808201527f556e617661696c61626c6520616d6f756e742070726f766964656420666f7220604482015263313ab93760e11b606482015260840161058d565b6001600160a01b0382166000908152600860205260409020546112dc908290611e90565b6001600160a01b038316600090815260086020526040902055600454611303908290611e90565b6004556040518181526000906001600160a01b038416907fddf252ad1be2c89b69c2b068fc378daa952ba7f163c4a11628f55a4df523b3ef906020016111cd565b600081116113af5760405162461bcd60e51b815260206004820152603260248201527f596f75206d757374207374616b65206120726561736f6e61626c652073756d206044820152716772657261746572207468616e207a65726f60701b606482015260840161058d565b3360009081526002602052604090205442816113d1576113ce33611873565b91505b600182815481106113e4576113e4611f09565b60009182526020808320604080516060808201835289825281850188815282840188815260016002988902909601860180548088018255908a529887902093516003909902909301978855519387019390935551949093019390935581513381529081018690529081018490529081018290527fb4caaf29adda3eefee3ad552a8e85058589bf834c7466cae4ee58787f70589ed9060800160405180910390a1505050565b60006114ab73c778417e063141139fce010982780140aa0cd5ab33308561190b565b6114de73ad6d458402f60fd3bd25163575031acdce07538d73e592427a0aece92de3edee1f18e0157c0586156484611a15565b604080516101008101825273c778417e063141139fce010982780140aa0cd5ab815273ad6d458402f60fd3bd25163575031acdce07538d6020820152610bb88183015233606082015242608082015260a08101849052600160c0820152600060e0820152905163414bf38960e01b815273e592427a0aece92de3edee1f18e0157c058615649063414bf38990611578908490600401611f79565b6020604051808303816000875af1158015611597573d6000803e3d6000fd5b505050506040513d601f19601f820116820180604052508101906115bb9190611f1f565b915073e592427a0aece92de3edee1f18e0157c058615646001600160a01b03166312210e8a6040518163ffffffff1660e01b8152600401600060405180830381600087803b15801561160c57600080fd5b505af1158015611620573d6000803e3d6000fd5b50506040516000925033915047908381818185875af1925050503d8060008114611666576040519150601f19603f3d011682016040523d82523d6000602084013e61166b565b606091505b50509050806116ac5760405162461bcd60e51b815260206004820152600d60248201526c1c99599d5b990819985a5b1959609a1b604482015260640161058d565b5050919050565b60006116d573ad6d458402f60fd3bd25163575031acdce07538d33308561190b565b61170873ad6d458402f60fd3bd25163575031acdce07538d73e592427a0aece92de3edee1f18e0157c0586156484611a15565b604080516101008101825273ad6d458402f60fd3bd25163575031acdce07538d815273c778417e063141139fce010982780140aa0cd5ab6020820152610bb88183015233606082015242608082015260a0810185905260c08101849052600060e08201529051631b67c43360e31b815273e592427a0aece92de3edee1f18e0157c058615649063db3e2198906117a2908490600401611f79565b6020604051808303816000875af11580156117c1573d6000803e3d6000fd5b505050506040513d601f19601f820116820180604052508101906117e59190611f1f565b91508282101561184b5761182373ad6d458402f60fd3bd25163575031acdce07538d73e592427a0aece92de3edee1f18e0157c058615646000611a15565b61184b73ad6d458402f60fd3bd25163575031acdce07538d336118468587611e90565b611b15565b5092915050565b80516a636f6e736f6c652e6c6f67602083016000808483855afa5050505050565b600180548101808255600082815291829161188e9190611e90565b905082600182815481106118a4576118a4611f09565b6000918252602080832060029283020180546001600160a01b0319166001600160a01b0395861617905592861680835292526040808220849055518392917fc89d5f439352f3138601bf8acaad81f68d1599d1e6f94693df9955036366193391a392915050565b604080516001600160a01b0385811660248301528481166044830152606480830185905283518084039091018152608490920183526020820180516001600160e01b03166323b872dd60e01b179052915160009283929088169161196f9190611fe3565b6000604051808303816000865af19150503d80600081146119ac576040519150601f19603f3d011682016040523d82523d6000602084013e6119b1565b606091505b50915091508180156119db5750805115806119db5750808060200190518101906119db9190611fff565b611a0d5760405162461bcd60e51b815260206004820152600360248201526229aa2360e91b604482015260640161058d565b505050505050565b604080516001600160a01b038481166024830152604480830185905283518084039091018152606490920183526020820180516001600160e01b031663095ea7b360e01b1790529151600092839290871691611a719190611fe3565b6000604051808303816000865af19150503d8060008114611aae576040519150601f19603f3d011682016040523d82523d6000602084013e611ab3565b606091505b5091509150818015611add575080511580611add575080806020019051810190611add9190611fff565b611b0e5760405162461bcd60e51b8152602060048201526002602482015261534160f01b604482015260640161058d565b5050505050565b604080516001600160a01b038481166024830152604480830185905283518084039091018152606490920183526020820180516001600160e01b031663a9059cbb60e01b1790529151600092839290871691611b719190611fe3565b6000604051808303816000865af19150503d8060008114611bae576040519150601f19603f3d011682016040523d82523d6000602084013e611bb3565b606091505b5091509150818015611bdd575080511580611bdd575080806020019051810190611bdd9190611fff565b611b0e5760405162461bcd60e51b815260206004820152600260248201526114d560f21b604482015260640161058d565b60005b83811015611c29578181015183820152602001611c11565b83811115611c38576000848401525b50505050565b6020815260008251806020840152611c5d816040850160208701611c0e565b601f01601f19169190910160400192915050565b80356001600160a01b0381168114611c8857600080fd5b919050565b60008060408385031215611ca057600080fd5b611ca983611c71565b946020939093013593505050565b600060608284031215611cc957600080fd5b6040516060810181811067ffffffffffffffff82111715611cfa57634e487b7160e01b600052604160045260246000fd5b80604052508235815260208301356020820152604083013560408201528091505092915050565b600080600060608486031215611d3657600080fd5b611d3f84611c71565b9250611d4d60208501611c71565b9150604084013590509250925092565b600060208284031215611d6f57600080fd5b5035919050565b602080825282518282018190526000919060409081850190868401855b82811015611dc25781518051855286810151878601528501518585015260609093019290850190600101611d93565b5091979650505050505050565b600060208284031215611de157600080fd5b610a2e82611c71565b60008060408385031215611dfd57600080fd5b611e0683611c71565b9150611e1460208401611c71565b90509250929050565b60008060408385031215611e3057600080fd5b50508035926020909101359150565b600181811c90821680611e5357607f821691505b60208210811415611e7457634e487b7160e01b600052602260045260246000fd5b50919050565b634e487b7160e01b600052601160045260246000fd5b600082821015611ea257611ea2611e7a565b500390565b60008219821115611eba57611eba611e7a565b500190565b6020808252602a908201527f4f776e61626c653a206f6e6c79206f776e65722063616e2063616c6c207468696040820152693990333ab731ba34b7b760b11b606082015260800190565b634e487b7160e01b600052603260045260246000fd5b600060208284031215611f3157600080fd5b5051919050565b600082611f5557634e487b7160e01b600052601260045260246000fd5b500490565b6000816000190483118215151615611f7457611f74611e7a565b500290565b61010081016104d9828480516001600160a01b03908116835260208083015182169084015260408083015162ffffff16908401526060808301518216908401526080808301519084015260a0828101519084015260c0808301519084015260e09182015116910152565b60008251611ff5818460208701611c0e565b9190910192915050565b60006020828403121561201157600080fd5b81518015158114610a2e57600080fdfea2646970667358221220c6764229772c3cdda24d2b68cfde9d1caa2c2870263c9079c9e8e8dfce3f37c364736f6c634300080a0033",
    "sourcePath": "c:/Users/User/programs/xblock/contracts/Kingex.sol",
    "compiler": {
        "name": "solc",
        "version": "0.8.10+commit.fc410830"
    },
    "functionHashes": {
        "allowance(address,address)": "dd62ed3e",
        "approve(address,uint256)": "095ea7b3",
        "balanceOf(address)": "70a08231",
        "burn(address,uint256)": "9dc29fac",
        "decimals()": "313ce567",
        "decreaseAllowance(address,uint256)": "a457c2d7",
        "getEstimateDAI(uint256)": "c602a0ae",
        "getEstimateETH(uint256)": "ae110198",
        "getOwner()": "893d20e8",
        "increaseAllowance(address,uint256)": "39509351",
        "mint(address,uint256)": "40c10f19",
        "name()": "06fdde03",
        "owner()": "8da5cb5b",
        "poolFee()": "089fe6aa",
        "quoter()": "c6bbd5a7",
        "renounceOwnership()": "715018a6",
        "returnStakes()": "4eca89cc",
        "returnTimeStamp()": "e29af4ef",
        "rewardStake((uint256,uint256,uint256))": "0d71a7ea",
        "stake(uint256)": "a694fc3a",
        "swapDAI(uint256,uint256)": "e1915db1",
        "swapWETH(uint256)": "c2cdcf22",
        "symbol()": "95d89b41",
        "totalSupply()": "18160ddd",
        "transfer(address,uint256)": "a9059cbb",
        "transferFrom(address,address,uint256)": "23b872dd",
        "uniswapRouter()": "735de9f7",
        "withdrawStake(uint256)": "25d5971f"
    },
    "gasEstimates": {
        "creation": {
            "codeDepositCost": "1655800",
            "executionCost": "infinite",
            "totalCost": "infinite"
        },
        "external": {
            "allowance(address,address)": "infinite",
            "approve(address,uint256)": "24689",
            "balanceOf(address)": "2604",
            "burn(address,uint256)": "infinite",
            "decimals()": "2344",
            "decreaseAllowance(address,uint256)": "27000",
            "getEstimateDAI(uint256)": "infinite",
            "getEstimateETH(uint256)": "infinite",
            "getOwner()": "2377",
            "increaseAllowance(address,uint256)": "27004",
            "mint(address,uint256)": "infinite",
            "name()": "infinite",
            "owner()": "2399",
            "poolFee()": "273",
            "quoter()": "260",
            "renounceOwnership()": "30254",
            "returnStakes()": "infinite",
            "returnTimeStamp()": "301",
            "rewardStake((uint256,uint256,uint256))": "infinite",
            "stake(uint256)": "infinite",
            "swapDAI(uint256,uint256)": "infinite",
            "swapWETH(uint256)": "infinite",
            "symbol()": "infinite",
            "totalSupply()": "2360",
            "transfer(address,uint256)": "53571",
            "transferFrom(address,address,uint256)": "infinite",
            "uniswapRouter()": "327",
            "withdrawStake(uint256)": "infinite"
        },
        "internal": {
            "_approve(address,address,uint256)": "infinite",
            "_burn(address,uint256)": "infinite",
            "_mint(address,uint256)": "infinite",
            "_transfer(address,address,uint256)": "infinite"
        }
    }
}