{
    "contractName": "Stakable",
    "abi": [
        {
            "inputs": [],
            "stateMutability": "nonpayable",
            "type": "constructor"
        },
        {
            "anonymous": false,
            "inputs": [
                {
                    "indexed": false,
                    "internalType": "address",
                    "name": "staker",
                    "type": "address"
                },
                {
                    "indexed": false,
                    "internalType": "uint256",
                    "name": "amount",
                    "type": "uint256"
                },
                {
                    "indexed": false,
                    "internalType": "uint256",
                    "name": "id",
                    "type": "uint256"
                },
                {
                    "indexed": false,
                    "internalType": "uint256",
                    "name": "time",
                    "type": "uint256"
                }
            ],
            "name": "Staked",
            "type": "event"
        },
        {
            "anonymous": false,
            "inputs": [
                {
                    "indexed": true,
                    "internalType": "address",
                    "name": "staker",
                    "type": "address"
                },
                {
                    "indexed": true,
                    "internalType": "uint256",
                    "name": "id",
                    "type": "uint256"
                }
            ],
            "name": "tellId",
            "type": "event"
        },
        {
            "inputs": [
                {
                    "internalType": "address",
                    "name": "_account",
                    "type": "address"
                }
            ],
            "name": "_hasStake",
            "outputs": [
                {
                    "internalType": "uint256",
                    "name": "",
                    "type": "uint256"
                }
            ],
            "stateMutability": "view",
            "type": "function"
        }
    ],
    "bytecode": "608060405260c860025534801561001557600080fd5b50600080546001018155805261036a806100306000396000f3fe608060405234801561001057600080fd5b506004361061002b5760003560e01c8063c63309c914610030575b600080fd5b61004361003e36600461026f565b610055565b60405190815260200160405180910390f35b6001600160a01b038116600090815260016020526040812054815482918291811061008257610082610298565b9060005260206000209060030201600101805480602002602001604051908101604052809291908181526020016000905b8282101561010357838290600052602060002090600302016040518060600160405290816000820154815260200160018201548152602001600282015481525050815260200190600101906100b3565b505050509050600080600090505b82518110156102245761013c83828151811061012f5761012f610298565b602002602001015161022c565b83828151811061014e5761014e610298565b60200260200101516040018181525050600060016000876001600160a01b03166001600160a01b03168152602001908152602001600020548154811061019657610196610298565b906000526020600020906003020160010181815481106101b8576101b8610298565b600091825260208083206003909202909101546001600160a01b038816835260019091526040822054825491929181106101f4576101f4610298565b90600052602060002090600302016002015461021091906102c4565b915061021d6001826102c4565b9050610111565b509392505050565b60008082602001514261023f91906102dc565b600254845191925090610254610e10846102f3565b61025e9190610315565b61026891906102f3565b9392505050565b60006020828403121561028157600080fd5b81356001600160a01b038116811461026857600080fd5b634e487b7160e01b600052603260045260246000fd5b634e487b7160e01b600052601160045260246000fd5b600082198211156102d7576102d76102ae565b500190565b6000828210156102ee576102ee6102ae565b500390565b60008261031057634e487b7160e01b600052601260045260246000fd5b500490565b600081600019048311821515161561032f5761032f6102ae565b50029056fea2646970667358221220a62f6e9bbcc4ece81bbefe7eeed7d3032cc0722b7337352b18c467ba88bc852764736f6c634300080b0033",
    "sourcePath": "c:/Users/User/programs/xblock/contracts/Stakeable.sol",
    "compiler": {
        "name": "solc",
        "version": "0.8.11+commit.d7f03943"
    },
    "functionHashes": {
        "_hasStake(address)": "c63309c9"
    },
    "gasEstimates": {
        "creation": {
            "codeDepositCost": "174800",
            "executionCost": "46547",
            "totalCost": "221347"
        },
        "external": {
            "_hasStake(address)": "infinite"
        },
        "internal": {
            "_calculateStakeReward(struct Stakable.stakes memory)": "infinite",
            "_newStaker(address)": "infinite",
            "_stake(uint256)": "infinite",
            "_withdrawStake(uint256,uint256)": "infinite"
        }
    }
}